:020000040000FA
:100000000A128A11DB2F00308A000408840A820752
:1000100000344E3445344734413454344934563432
:100020004534003450344F34533449345434493413
:1000300056344534003461346334623400346134FE
:0600400062346334003459
:1009600001340234033404348316031386177F30B2
:10097000F00070088105080064008001840A040604
:10098000031900340406BD2C831603130710071146
:1009900087108312031307100711871008000F3008
:1009A0008316031385000F308316031788008030E9
:1009B000831603139F000800F0000000E22C0130B2
:1009C000F002E22C7008031DE62CE72CDF2CE82C4B
:1009D0000800F830F00070088316031389058316A9
:1009E0000317880189018316031388010800013069
:1009F0000A128A1172260A128A110A30F000003097
:100A0000F1000A128A1197250A128A1108000A12A7
:100A10008A112B250A128A11F2007208F300F31BC7
:100A2000122D132D072D172D172D072D072D08001B
:100A3000F100831203138910091409117108880049
:100A4000891408300A128A11DC240A128A118312CE
:100A5000031389100800FF30831203138800091064
:100A6000091500008312031389140808F0007008A8
:100A7000F100891000008312031309118801710825
:100A8000412D0800FA007703031D472D482D4E2DF8
:100A90007A08803EF8007808F900542D7A08C03EA4
:100AA000F8007808F900542D790880380A128A1164
:100AB00072260A128A11080083120313861B612D05
:100AC000622D752D0F30F0000030F1000A128A11EE
:100AD00097250A128A1183120313861B702D712D1C
:100AE000752D0130772D772D752D0030772D08006D
:100AF00001300A128A1172260A128A1138300A123B
:100B00008A1172260A128A110C300A128A11722670
:100B10000A128A1180300A128A1172260A128A1168
:100B200001300A128A1172260A128A110800F30192
:100B3000F401B42D6C30F2007208F5007508031D45
:100B4000A22DA32DA52DAE2DAE2D00000130F50256
:100B50007508031DAC2DAD2DA52DAE2D0130F3076D
:100B60000318F40A0030F40771087402031DBA2D4B
:100B700070087302031CBD2DBE2D9A2DBF2D0800D9
:100B8000831203132D080319C62DC72DCA2DF62D68
:100B9000F62DF62D0A128A115C250A128A11003AE6
:100BA0000319D32DD42DF62D00300A128A11F72502
:100BB0000A128A11831203132708031DED2D26083C
:100BC000031DED2D02302502031DEA2D0130240204
:100BD000031DEA2D0318ED2DEE2DF62DAC01AC0A08
:100BE000AD01AD0A8714F62DF62DF62D0800F5009F
:100BF0004030831203139F007508F1000130031089
:100C0000F10DFF3E031DFF2D0310710DF200720860
:100C10009F041F1400300A128A11DC240A128A1160
:100C2000831203139F14142E9F18172E182E142EA0
:100C30000C139F101F10831603131E08F100F201FE
:100C4000831203131E08F300F4017308F400F30188
:100C500071087304A40072087404A500A601A51B02
:100C6000A6032608A700080083120313B6000A1281
:100C70008A1107250A128A117B08FD007D08F700FA
:100C80008312031336080A128A1142250A128A11A6
:100C9000642E7C0884000A128A1103200A128A1129
:100CA0008312031388007C0884000A128A1103202F
:100CB0000A128A110A128A1118250A128A110130A1
:100CC000FD007D08FC07642E7C0884000A128A114E
:100CD00003200A128A11003A031D6F2E702E492E2E
:100CE000712E0800F60083120313891009100911F0
:100CF0007608880008300A128A11DC240A128A1148
:100D000008300A128A11DC240A128A1108300A12E9
:100D10008A11DC240A128A1108300A128A11DC2492
:100D20000A128A1108300A128A11DC240A128A1166
:100D300008300A128A11DC240A128A118312031362
:100D400089140130F0000030F1000A128A11972551
:100D50000A128A1108300A128A11DC240A128A1136
:100D600083120313891008000A128A11E9240A1257
:100D70008A110A128A1178250A128A110A128A1116
:100D8000F7240A128A110A128A11CF240A128A1130
:100D90000A128A11C4240A128A110A128A11B4246E
:100DA0000A128A11D32E0A128A11C0250A128A1138
:100DB0008312031329080319DE2EE02E0130E12EE1
:100DC00000302C050319E52EE62E572F01300A12AC
:100DD0008A11F7250A128A11831203132708031DAB
:100DE000FF2E2608031DFF2E01302502031DFC2EB9
:100DF0009F302402031DFC2E0318FF2E002F572FB7
:100E00002708031D122F2608031D122F013025026B
:100E1000031D0E2F94302402031D0E2F031C112FCF
:100E2000122F572F2708A3002608A2002508A1008B
:100E30002408A00001300A128A11F7250A128A112B
:100E40008312031327082302031D302F26082202D2
:100E5000031D302F25082102031D302F24082002F6
:100E60000318332F342F572F02300A128A11F72517
:100E70000A128A11831203132708031D4E2F260816
:100E8000031D4E2F01302502031D4A2F9A302402E4
:100E9000031D4A2F031C4D2F4E2F502FAA01522FF6
:100EA000AA01AA0AA901A90A572F572F572F2B08C1
:100EB00003195B2F5D2F01305E2F003029050319C8
:100EC000622F632FD32E07142A08031D682F692F62
:100ED000732F1430F0000030F1000A128A119725A8
:100EE0000A128A11732F8312031307100730F000C0
:100EF0000030F1000A128A1197250A128A11831212
:100F0000031307150D30F0000030F1000A128A11AA
:100F100097250A128A118312031307112A0803194D
:100F2000922F932FB02FFB01FB0A1730B700370821
:100F3000FC0001300A128A1134260A128A1102308A
:100F400083120313B7003708FB000A30B8003808D3
:100F5000FC0001300A128A1134260A128A11CF2F9E
:100F6000FB01FB0A133083120313B7003708FC00A0
:100F700001300A128A1134260A128A1102308312B1
:100F80000313B7003708FB000130B8003808FC0035
:100F900001300A128A1134260A128A11CF2F8312C5
:100FA00003130710AB01AB0A0000D32ED32ED32EB0
:100FB0000A128A1100280A128A11B0240A128A1110
:100FC000B2000A128A11B1240A128A11B3000A125D
:100FD0008A11B2240A128A11B4000A128A11B324A7
:100FE0000A128A11B50083132030840032300A12AD
:100FF0008A11BC240A128A1183010A128A11B42EA2
:04400E00F2FFFFFFBF
:00000001FF
